:020000040800F2
:1000000000000220DD5600082D5700082D5700087B
:100010002D5700082D5700082D570008000000003C
:10002000000000000000000000000000C5530008B0
:100030002D57000800000000C7530008C9530008EE
:100040002D5700082D5700082D5700082D57000880
:100050002D5700082D5700082D5700082D57000870
:100060002D5700082D5700082D5700082D57000860
:100070002D5700082D5700082D5700082D57000850
:100080002D5700082D5700082D5700082D57000840
:100090002D5700082D5700082D5700082D57000830
:1000A0002D570008D95300082D5700082D57000878
:1000B0002D5700082D5700082D5700082D57000810
:1000C0002D5700082D5700082D5700082D57000800
:1000D0002D5700082D5700082D5700082D570008F0
:1000E0002D5700082D5700082D5700082D570008E0
:1000F0002D5700082D5700082D5700082D570008D0
:100100002D5700082D5700082D5700082D570008BF
:100110002D5700082D5700082D570008E5530008FB
:100120002D5700082D5700082D5700082D5700089F
:100130002D5700082D5700082D5700082D5700088F
:100140002D5700082D5700082D570008F1530008BF
:100150002D5700082D5700082D5700082D5700086F
:100160002D5700082D5700082D5700082D5700085F
:100170002D5700082D5700082D57000800000000DB
:080180002D5700082D5700085F
:1001880010B5054C237833B9044B13B10448AFF3C9
:1001980000800123237010BD5801002000000000DA
:1001A8003059000808B5034B1BB103490348AFF3A6
:1001B800008008BD000000005C01002030590008E4
:1001C80081F0004102E000BF83F0004330B54FEA00
:1001D80041044FEA430594EA050F08BF90EA020F6D
:1001E8001FBF54EA000C55EA020C7FEA645C7FEA00
:1001F800655C00F0E2804FEA5454D4EB5555B8BF23
:100208006D420CDD2C4480EA020281EA030382EA93
:10021800000083EA010180EA020281EA0303362D25
:1002280088BF30BD11F0004F4FEA01314FF4801CF8
:100238004CEA113102D0404261EB410113F0004F0A
:100248004FEA03334CEA133302D0524263EB4303C1
:1002580094EA050F00F0A780A4F10104D5F1200E5F
:100268000DDB02FA0EFC22FA05F2801841F10001BA
:1002780003FA0EF2801843FA05F359410EE0A5F18E
:1002880020050EF1200E012A03FA0EFC28BF4CF0BF
:10029800020C43FA05F3C01851EBE37101F0004575
:1002A80007D54FF0000EDCF1000C7EEB00006EEB82
:1002B8000101B1F5801F1BD3B1F5001F0CD349080C
:1002C8005FEA30004FEA3C0C04F101044FEA445263
:1002D80012F5800F80F09A80BCF1004F08BF5FEAEA
:1002E800500C50F1000041EB045141EA050130BDCA
:1002F8005FEA4C0C404141EB010111F4801FA4F16D
:100308000104E9D191F0000F04BF01460020B1FAC1
:1003180081F308BF2033A3F10B03B3F120020CDAF9
:100328000C3208DD02F1140CC2F10C0201FA0CF0D7
:1003380021FA02F10CE002F11402D8BFC2F1200C3C
:1003480001FA02F120FA0CFCDCBF41EA0C019040F2
:10035800E41AA2BF01EB0451294330BD6FEA04043B
:100368001F3C1CDA0C340EDC04F11404C4F1200226
:1003780020FA04F001FA02F340EA030021FA04F338
:1003880045EA030130BDC4F10C04C4F1200220FA8F
:1003980002F001FA04F340EA0300294630BD21FACD
:1003A80004F0294630BD94F0000F83F4801306BF93
:1003B80081F480110134013D4EE77FEA645C18BF87
:1003C8007FEA655C29D094EA050F08BF90EA020F1E
:1003D80005D054EA000C04BF1946104630BD91EA16
:1003E800030F1EBF0021002030BD5FEA545C05D119
:1003F8004000494128BF41F0004130BD14F5800458
:100408003CBF01F5801130BD01F0004545F0FE41CB
:1004180041F470014FF0000030BD7FEA645C1ABF00
:10042800194610467FEA655C1CBF0B46024650EA37
:10043800013406BF52EA033591EA030F41F4002163
:1004480030BD00BF90F0000F04BF0021704730B5E9
:100458004FF4806404F132044FF000054FF00001BE
:1004680050E700BF90F0000F04BF0021704730B57F
:100478004FF4806404F1320410F0004548BF404254
:100488004FF000013EE700BF42004FEAE2014FEAA9
:1004980031014FEA02701FBF12F07F4393F07F4F84
:1004A80081F06051704792F0000F14BF93F07F4FB6
:1004B800704730B54FF4607401F0004521F00041F9
:1004C80020E700BF50EA010208BF704730B54FF07F
:1004D80000050AE050EA010208BF704730B511F084
:1004E800004502D5404261EB41014FF4806404F1BC
:1004F80032045FEA915C3FF4DCAE4FF003025FEA3E
:10050800DC0C18BF03325FEADC0C18BF033202EBC5
:10051800DC02C2F1200300FA03FC20FA02F001FA1F
:1005280003FE40EA0E0021FA02F11444C1E600BFBE
:1005380070B54FF0FF0C4CF4E06C1CEA11541DBF71
:100548001CEA135594EA0C0F95EA0C0F00F0DEF83C
:100558002C4481EA030621EA4C5123EA4C5350EA21
:10056800013518BF52EA033541F4801143F4801372
:1005780038D0A0FB02CE4FF00005E1FB02E506F003
:100588000042E0FB03E54FF00006E1FB03569CF058
:10059800000F18BF4EF0010EA4F1FF04B6F5007F5E
:1005A80064F5407404D25FEA4E0E6D4146EB0606D0
:1005B80042EAC62141EA55514FEAC52040EA5E5059
:1005C8004FEACE2EB4F1FD0C88BFBCF5E06F1ED803
:1005D800BEF1004F08BF5FEA500E50F1000041EB3A
:1005E800045170BD06F0004646EA010140EA0200E7
:1005F80081EA0301B4EB5C04C2BFD4EB0C0541EA09
:10060800045170BD41F480114FF0000E013C00F31D
:10061800AB8014F1360FDEBF002001F0004170BD41
:10062800C4F10004203C35DA0C341BDC04F114045A
:10063800C4F1200500FA05F320FA04F001FA05F2E6
:1006480040EA020001F0004221F0004110EBD370B3
:1006580021FA04F642EB06015EEA430E08BF20EADF
:10066800D37070BDC4F10C04C4F1200500FA04F382
:1006780020FA05F001FA04F240EA020001F0004114
:1006880010EBD37041F100015EEA430E08BF20EA87
:10069800D37070BDC4F1200500FA05F24EEA020ECF
:1006A80020FA04F301FA05F243EA020321FA04F0FE
:1006B80001F0004121FA04F220EA020000EBD370B5
:1006C8005EEA430E08BF20EAD37070BD94F0000FB5
:1006D8000FD101F00046400041EB010111F4801FE9
:1006E80008BF013CF7D041EA060195F0000F18BF9A
:1006F800704703F00046520043EB030313F4801FD6
:1007080008BF013DF7D043EA0603704794EA0C0F8F
:100718000CEA135518BF95EA0C0F0CD050EA4106A5
:1007280018BF52EA4306D1D181EA030101F0004122
:100738004FF0000070BD50EA410606BF104619464A
:1007480052EA430619D094EA0C0F02D150EA013656
:1007580013D195EA0C0F05D152EA03361CBF104697
:1007680019460AD181EA030101F0004141F0FE4136
:1007780041F470014FF0000070BD41F0FE4141F4BA
:10078800780170BD70B54FF0FF0C4CF4E06C1CEABA
:1007980011541DBF1CEA135594EA0C0F95EA0C0F6F
:1007A80000F0A7F8A4EB050481EA030E52EA03352A
:1007B8004FEA013100F088804FEA03334FF080554B
:1007C80045EA131343EA12634FEA022245EA111578
:1007D80045EA10654FEA00260EF000419D4208BF29
:1007E800964244F1FD0404F5407402D25B084FEAD6
:1007F8003202B61A65EB03055B084FEA32024FF482
:1008080080104FF4002CB6EB020E75EB030E22BFDE
:10081800B61A754640EA0C005B084FEA3202B6EB9E
:10082800020E75EB030E22BFB61A754640EA5C004D
:100838005B084FEA3202B6EB020E75EB030E22BFDD
:10084800B61A754640EA9C005B084FEA3202B6EBDE
:10085800020E75EB030E22BFB61A754640EADC009D
:1008680055EA060E18D04FEA051545EA16754FEAFF
:1008780006164FEAC30343EA52734FEAC2025FEA1D
:100888001C1CC0D111F4801F0BD141EA00014FF0AC
:1008980000004FF0004CB6E711F4801F04BF01437D
:1008A8000020B4F1FD0C88BFBCF5E06F3FF6AFAE99
:1008B800B5EB030C04BFB6EB020C5FEA500C50F129
:1008C800000041EB045170BD0EF0004E4EEA1131AC
:1008D80014EB5C04C2BFD4EB0C0541EA045170BDB3
:1008E80041F480114FF0000E013C90E645EA060EF7
:1008F8008DE60CEA135594EA0C0F08BF95EA0C0F25
:100908003FF43BAF94EA0C0F0AD150EA01347FF46C
:1009180034AF95EA0C0F7FF425AF104619462CE743
:1009280095EA0C0F06D152EA03353FF4FDAE1046A6
:10093800194622E750EA410618BF52EA43067FF4F7
:10094800C5AE50EA41047FF40DAF52EA43057FF487
:10095800EBAE12E74A0011D212F5001211D20DD5F2
:100968006FF47873B3EB62520ED44FEAC12343F0AD
:10097800004343EA505323FA02F070474FF0000057
:10098800704750EA013002D14FF0FF3070474FF006
:100998000000704753B94AB9002908BF00281CBF96
:1009A8004FF0FF314FF0FF3000F07AB9ADF1080C8D
:1009B8006DE904CE00F006F8DDF804E0DDE9022375
:1009C80004B070472DE9F0478C460D460446089E52
:1009D800002B51D18A4217466DD9B2FA82FEBEF178
:1009E800000F0BD0CEF1200C01FA0EF520FA0CFC0A
:1009F80002FA0EF74CEA050C00FA0EF44FEA174A11
:100A0800250CBCFBFAF81FFA87F90AFB18CC45EA53
:100A18000C4508FB09F3AB420AD9ED1908F1FF327E
:100A280080F02381AB4240F22081A8F102083D44C6
:100A3800ED1AA4B2B5FBFAF00AFB105544EA0544D6
:100A480000FB09F9A14509D9E41900F1FF3380F049
:100A58000A81A14540F2078102383C44A4EB09040D
:100A680040EA08400021002E61D024FA0EF4002349
:100A780034607360BDE8F0878B4207D9002E54D0EC
:100A8800002186E821000846BDE8F087B3FA83F123
:100A9800002940F08E80AB4202D3824200F2FA80F5
:100AA800841A65EB03050120AC46002E3FD086E88A
:100AB8001010BDE8F08712B90127B7FBF2F7B7FAB3
:100AC80087FEBEF1000F34D1EB1B3A0C1FFA87FCEE
:100AD8000121B3FBF2F8250C02FB183345EA034564
:100AE8000CFB08F3AB4207D9ED1908F1FF3002D22D
:100AF800AB4200F2D1808046ED1AA3B2B5FBF2F00A
:100B080002FB105543EA05440CFB00FCA44507D939
:100B1800E41900F1FF3302D2A44500F2B880184668
:100B2800A4EB0C0440EA08409DE731463046BDE896
:100B3800F087CEF1200405FA0EF307FA0EF720FA33
:100B480004F83A0C25FA04F448EA0308B4FBF2F175
:100B58004FEA184502FB11441FFA87FC45EA044591
:100B680001FB0CF3AB4200FA0EF409D9ED1901F1BF
:100B7800FF3080F08A80AB4240F2878002393D44E2
:100B8800EB1A1FFA88F5B3FBF2F002FB103345EAC3
:100B9800034500FB0CF3AB4207D9ED1900F1FF3810
:100BA8006FD2AB426DD902383D44EB1A40EA01419D
:100BB8008FE7C1F1200722FA07F88B4005FA01F404
:100BC80048EA030320FA07FE4FEA134CFD404EEAB9
:100BD800040EB5FBFCF94FEA1E440CFB19551FFA2D
:100BE80083F844EA054509FB08F4AC4202FA01F22D
:100BF80000FA01FA08D9ED1809F1FF3043D2AC42E6
:100C080041D9A9F102091D442D1B1FFA8EFEB5FB1F
:100C1800FCF00CFB10554EEA054400FB08F8A04513
:100C280007D9E41800F1FF3529D2A04527D90238A1
:100C38001C4440EA0940A4EB0804A0FB02894C4587
:100C4800C6464D4615D312D056B1BAEB0E0364EB27
:100C5800050404FA07F7CB401F43CC4037607460A3
:100C68000021BDE8F0871846F8E69046E0E6C24560
:100C7800EAD2B8EB020E69EB03050138E4E728462F
:100C8800D7E7404691E78146BEE7014678E7023854
:100C98003C4445E7084608E7A8F102083D442BE72D
:100CA800704700BF38B50E4A0E4B054618784FF40A
:100CB8007A73B3FBF0F31068B0FBF3F000F0B4FA0A
:100CC800044658B90F2D09D8024629464FF0FF307F
:100CD80000F06AFA044B20461D6038BD012038BD7B
:100CE800EC000020000000200400002008B50B4B99
:100CF8001A6842F400721A601A6842F480621A6034
:100D08001A6842F480721A60032000F03BFA00204F
:100D1800FFF7C8FF04F0ACF9002008BD003C024012
:100D2800034A044B11681B780B441360704700BFDB
:100D3800CC01002000000020014B1868704700BF5C
:100D4800CC01002038B50446FFF7F6FF631C1CBF32
:100D5800054B1B78054618BFE418FFF7EDFF401B4D
:100D68008442FAD838BD00BF0000002010B5044600
:100D7800002800F09980036C23B9436480F83C3064
:100D880004F0BEF9236CDB0600F18C80236C23F49D
:100D9800885323F0020343F002032364434B5A6849
:100DA80022F440325A605A6861680A435A602368DC
:100DB80021695A6822F480725A605A6842EA01220C
:100DC8005A605A68A16822F040725A605A680A4309
:100DD8005A609A68E16822F400629A609A680A4345
:100DE8009A603349A26A8A4250D0996821F07061AA
:100DF800996099680A439A609A68E16A22F04052B9
:100E08009A609A680A439A609A68A16922F0020275
:100E18009A609A6842EA41029A60226A002A3DD0A2
:100E28005A68616A42F400625A605A6822F4604261
:100E38005A605A68013942EA41325A60DA6AE1690D
:100E480022F47002DA62DA6A013942EA0152DA629D
:100E58009A68216B22F400729A609A6842EA4122E9
:100E68009A609A68616922F480629A609A680020A0
:100E780042EA81229A606064236C23F0030343F002
:100E880001032364002384F83C3010BD9A6822F0E3
:100E980070629A609A6822F04052B4E75A6822F465
:100EA8000062CAE70120EDE7012010BD00230140E0
:100EB8000100000F82B00023019390F83C30012B11
:100EC8004ED0012380F83C3003689A68D10705D5D5
:100ED8009A68D20714D4002002B070479A68214952
:100EE80042F001029A60204A1268B2FBF1F202EB6A
:100EF80042020192019A002AEAD0019A013AF8E7DF
:100F0800026C22F4E06222F0010242F48072026470
:100F18005A68510541BF026C22F4405242F4805293
:100F28000264026C12F480521CBF426C22F006026A
:100F38004264002280F83C206FF022021A600B4ABB
:100F48005268D20608D1986810F04050C3D19A6808
:100F580042F080429A60BFE7054A9342BBD1F2E76C
:100F68000220B9E740420F00EC00002000230140B6
:100F78000020014090F83C30012B17D0012380F865
:100F88003C3003689A6822F001029A609B68DB078C
:100F980007D4036C23F4885323F0010343F00103BF
:100FA8000364002380F83C301846704702207047DD
:100FB80003689A6870B5560504460D460BD59B68BC
:100FC800D80508D5236C43F020032364002384F854
:100FD8003C30012070BDFFF7AFFE064623681A6853
:100FE80092070CD56FF012021A60226C42F400725C
:100FF80022649A6812F0405F13D0002070BD691C0B
:10100800EDD045B9236C43F004032364002384F82E
:101018003C30032070BDFFF78FFE801B8542DDD278
:10102800F0E7A269002AE8D1DA6A12F4700F02D058
:101038009B685B05E1D4236C23F480732364206CE4
:1010480010F48050D9D1236C43F00103236470BDA0
:101058000368D86C70470000F7B50023019390F837
:101068003C30012B00F083800D6804688A680123F6
:10107800092D80F83C30AEB22AD906EB4603E76862
:101088001E3B4FF0070E0EFA03FE27EA0E07E76035
:10109800E76802FA03F33B43E3604A68062A4FEA2B
:1010A800820325D81344676B591F1F238B4027EAF7
:1010B80003036363626B06FA01F1114361632D4B0D
:1010C8009C4234D0002380F83C30184603B0F0BD71
:1010D800276905EB45034FF0070E0EFA03FE27EAD2
:1010E8000E072761276902FA03F33B432361D4E71C
:1010F8000C2A0ED81344216BA3F123021F2393401B
:1011080021EA03032363236B06FA02F21A432263DC
:10111800D5E71344E16A413B1F229A4021EA0202C3
:10112800E262E26A06FA03F11143E162C7E7122DAF
:1011380004D1114A536843F480035360A5F11003A6
:10114800012BBFD80C4A5368102D43F40003536099
:10115800B8D10A4B0A4A1B68B3FBF2F20A2353437D
:101168000193019B002BADD0019B013BF8E70220C6
:10117800ACE700BF0020014000230140EC00002044
:1011880040420F00074AD36823F4E0631B041B0C9A
:1011980043F0BF63000243F4003300F4E06003430C
:1011A800D360704700ED00E0174B30B5DC68C4F33E
:1011B8000224C4F10703251D042B28BF0423062D90
:1011C8004FF0010505FA03F303F1FF338CBF033C2D
:1011D80000241940A14005FA04F4013C22400028EB
:1011E80042EA01024FEA0212AFBF00F1604000F08C
:1011F8000F00064BD2B2A5BF00F56140D2B21A5417
:1012080080F8002330BD00BF00ED00E014ED00E0E1
:101218004209012300F01F0003FA00F0014B43F8D4
:101228002200704700E100E00138B0F1807F0AD267
:10123800064B074A5860F02182F823100020072245
:1012480098601A6070470120704700BF10E000E006
:1012580000ED00E0044B1A6804280CBF42F00402B9
:1012680022F004021A60704710E000E0704708B5E9
:10127800FFF7FCFF08BD00002DE9F04F85B00B68B3
:10128800DFF8AC81684ADFF8AC91019300234FF096
:10129800010E019C0EFA03FE0EEA0406B64540F064
:1012A800AE804C6824F01007022F16D14FEAD30AFB
:1012B80000EB8A0A03F0070BDAF820504FEA8B0B91
:1012C8004FF00F0C0CFA0BFC25EA0C0C0D6905FA13
:1012D8000BF545EA0C05CAF820504FEA430A0325E6
:1012E800D0F800B005FA0AF5ED4304F0030C0BEA58
:1012F800050B0CFA0AFC013F4CEA0B0C012FC0F855
:1013080000C011D8876807EA050BCF6807FA0AFCFE
:101318004CEA0B078760476827EA0E0EC4F30017EC
:101328009F4047EA0E074760C7683D408F6807FA45
:101338000AF73D43C560E50061D54FF0000BCDF8D5
:101348000CB0D8F84470394D47F48047C8F8447059
:10135800D8F8447007F480470397039F23F00307E6
:1013680007F1804707F59C3703F0030CD7F808A06E
:101378004FEA8C0C4FF00F0E0EFA0CFEA8422AEA28
:101388000E0E43D005F58065A84241D005F580656D
:10139800A8423FD005F58065A8423DD005F5806597
:1013A800A8423BD048453BD005F50065A84239D056
:1013B80005F58065A84214BF0825072505FA0CF530
:1013C80045EA0E05BD601568F74314F4803F0CBF6D
:1013D8003D4035431560556814F4003F0CBF3D404F
:1013E80035435560956814F4801F0CBF3D40354364
:1013F8009560D568A40254BF3D403543D56001339C
:10140800102B7FF444AF05B0BDE8F08F5D46D5E7FB
:101418000125D3E70225D1E70325CFE70425CDE74A
:101428000525CBE70625C9E7003C0140000002403E
:1014380000380240001402400369194214BF012019
:10144800002070470AB1816170470904FBE74369CE
:101458005940416170472DE9FF41044690F89002D8
:101468009DF828609DF82C70BDF830E0012821D047
:10147800012084F89002282000FB014002F07F0C34
:10148800D50980F8383080F8391080F83F7080F836
:101498003AC080F83B5080F83C60A0F840E08DE806
:1014A800C040206801F0CAFF002384F8903204B0DD
:1014B800BDE8F0810220FAE790F89032012B10B5D0
:1014C800044609D0012380F89032006802F06FF9D1
:1014D800002084F8900210BD022010BD2DE9F041D3
:1014E80007468AB0A0B303233C4680F8913203F044
:1014F800D5FF54F8100B01F04BFE0FCC6D460FC50D
:101508000FCC0FC594E8030085E8030007F1040831
:101518003E4698E80E00386801F0FAFD56F8100BC0
:10152800012101F03BFE0FCE6D460FC50FCE0FC552
:1015380094E8030085E8030098E80E00386801F095
:10154800A9FE012387F8913200200AB0BDE8F08196
:101558000120FAE7F0B5282606FB01069DF814E0FD
:10156800069DBDF81C409DF8207086F83B2086F843
:101578003F30BEF1000F0ED14FF0030E022B86F85C
:1015880042E04AD0734555D0012B2FD1282303FBC5
:101598000103002255E04FF0020C86F842C0032BED
:1015A80024D801A656F823F0C1150008951500089F
:1015B800231600083D160008BEF1010F16D1AAB97E
:1015C80024B9282303FB010383F851E0282303FBF4
:1015D800010292F85160F6B982F8426003FB0103F8
:1015E80093F85C20022A01D083F83D70282606FB78
:1015F8000103002283F8391019465D649C6483F85E
:101608005C20DA6483F85D203831027C0068BDE82C
:10161800F04001F07FBF0226DEE7282303FB010329
:1016280092B993F851601EB983F842202823D5E770
:101638000222F9E7282303FB01032AB993F8516032
:1016480036B983F84220D1E793F85020002AF8D021
:101658000222F6E72DE9F04F066887B004463046C7
:1016680001F0FCFD012840F0EC80206801F0F2FD5B
:10167800002800F0E680206801F0ECFD810248BFF8
:101688002368206844BF4FF400125A6101F0E2FD5C
:10169800C20248BF2368206844BF4FF480125A61D1
:1016A80001F0D8FD430148BF2368206844BF4FF0CC
:1016B80080625A6101F0CEFD870748BF2368206821
:1016C80044BF02225A6101F0C5FD850010D5D6F845
:1016D800403423F02E03C6F84034204603F020FFA0
:1016E8000121206801F048FE23684FF000525A613A
:1016F800206801F0AFFDC00140D52568D5F8403419
:101708000493D5F840340593059B23F02E030593E5
:10171800049B99070DD5049BDA0706D5AB6923F01E
:101728000053AB61204603F0F7FE059B43F002032C
:101738000593049B1B0717D5059B43F008030593E6
:10174800049B5F0740F18880A16902297CD1049B32
:10175800206803F4C023B3F5802F18BF012101F0DE
:101768000BFE204603F0D8FE049B980642BF059B5B
:1017780043F020030593059BC5F84034206801F029
:1017880069FD010705D5204603F0C2FE236808223B
:101798005A61206801F05EFD820114D5206801F0CD
:1017A800F7FF06F5A063029001934FF0000B4FF08E
:1017B800010A28274FF00209A3689B4558D32368DC
:1017C8004FF000725A61206801F044FDC30638D515
:1017D8002568AB6923F01003AB612F6AC7F3434355
:1017E800022B29D1C7F30A18B8F1000F24D007F04B
:1017F8000F07282606FB0746716CE9B142462846C2
:1018080001F01AFD736C4344736405F5A065F36C2D
:1018180005EB47154344F3642A69B74B13405BB1A2
:101828002B6823F0804343F000432B6096F8503038
:1018380083F0010386F850302268936943F010035F
:10184800936107B0BDE8F08FE368032B04BF4EF641
:101858006022C5F8042484E7D5F84034226823F0D0
:101868002E03C5F84034936943F0005393617BE736
:10187800029A0AFA0BF3134200F08680019B206853
:101888001B6813F4004F5FFA8BF500F00A816A01B8
:1018980000F5A06802EB0806B1684B0713D50421D0
:1018A800B160F16841F00201F160B1688B053DD586
:1018B800F368206843F00203F360294601F077FFDC
:1018C8004FF400732BE1B168890602D52021B1607D
:1018D800EBE7B1680B0713D5F168039241F00201F9
:1018E800F16007FB05414FF0050E81F85DE010211E
:1018F800B1600821B160294601F059FF039AD4E785
:10190800B1684905D1D5F168039241F00201F1604F
:10191800294601F04CFF1021B16007FB0541082062
:1019280081F85D004FF48061B160E7E7B168C807EE
:1019380040D5216949B107FB054E3069DEF84810EA
:10194800C0F31200091ACEF84C1007FB054100201D
:10195800886581F85DA0C6F808A091F83F0010F0EE
:10196800FD0F17D1F368206843F00203F36029469E
:1019780001F01DFF1023B36007FB054595F85030B3
:1019880083F0010385F85030019B20330BF1010BE4
:10199800019311E70328EFD152F8080040F00050F6
:1019A80042F8080081F85CA001222946204603F08D
:1019B800BBFDE1E7B168890735D5F16807FB05404C
:1019C80021F00201F16090F85D1001290CD180F836
:1019D8005C1007FB0543C6F8089093F85C2029467D
:1019E800204603F0A1FDCFE70529F0D0062901D054
:1019F8000829EED107FB0541886D032800F1010392
:101A080088BF00208B6583BF8865042081F85C004F
:101A180081F85C9052F8081021F0804141F00041B3
:101A280042F80810D5E7B1680B0611D5F3682068AD
:101A380043F00203F36007FB054329469A6D013220
:101A48009A65062283F85D2001F0B1FE802366E0E6
:101A5800B168C80698D507FB054191F83F100329DE
:101A680009D1F1682068039241F00201F16029462A
:101A780001F09DFE039A07FB0545032185F85D10DB
:101A88001021B16095F83F1011F0FD0F7FF47CAF85
:101A980052F8081021F0804141F0004142F8081046
:101AA80072E700F5A06606EB4516B368590706D538
:101AB8000423B360F36843F00203F36064E7B36898
:101AC80013F020031AD02023B36007FB054393F8D3
:101AD8003D20012A7FF458AF042283F85D20F26884
:101AE800039342F00202F260294601F060FE039B74
:101AF80083F85C9048E700BF0000F81FB268520600
:101B08000FD507FB054204219365F36882F85D1041
:101B180043F00203F360294601F049FE4023B36015
:101B280032E7B26812F4007205D0F36843F002039A
:101B3800F3602946C2E6B368D90710D507FB054309
:101B480029469A65F268039342F00202F26001F0B6
:101B58002EFE039BC6F808A083F85DA014E7B368BF
:101B68001A070ED50823B360F36843F00203F36045
:101B7800294601F01CFE07FB0545052385F85D3065
:101B880002E7B368DB0611D507FB054300229A6517
:101B9800F268039342F00202F260294601F007FE60
:101BA800039B032283F85D201023B8E7B368190666
:101BB8000CD5F36843F00203F360294607FB05459B
:101BC80001F0F5FD062385F85D303FE7B16811F4B3
:101BD80080610FD0F36843F00203F360294601F0F7
:101BE800E6FD1023B3604FF48063B36007FB05453F
:101BF8000823C3E7B3689A077FF5C6AEF36823F0F6
:101C08000203F36007FB054393F85D20012A0DD119
:101C180083F85C2093F83F20022A7FF4DAAE93F829
:101C2800512082F0010283F85120D2E6032A02D122
:101C380083F85C90CDE6042A04D183F85C9083F89D
:101C48003D10C6E6052A02D183F85C20C1E6062AC3
:101C580002D0082A7FF4BDAE07FB05439A6D511CDC
:101C6800032A9965E4D900229A650422ECE700BFAB
:101C780038B590F89032012B04460DD0012580F834
:101C88009052006801F07EFA2946206801F0AAFB0C
:101C9800002084F8900238BD022038BD90F89032B8
:101CA800012B10B5044609D0012380F89032006852
:101CB80001F0A2FE002084F8900210BD022010BDA1
:101CC800006801F076BB282303FB010191F85C0052
:101CD8007047282303FB0101C86C7047006801F0B6
:101CE800A8BB006801F09CBB70B50446002862D010
:101CF80090F83D3003F0FF021BB980F83C2003F058
:101D080045FA22682D4E2E4D242384F83D30136861
:101D180023F00103136000F0EBFC63682268B0FB5A
:101D2800F5F5B34284BF4FF496716943556091BF8E
:101D3800691C4FF47A75B1FBF5F10131B3421162B8
:101D480021D85B00B0FBF3F0C0F30B03032B98BF63
:101D58000420216AE369D0610B431360E1682369B9
:101D68000B439360A16963690B43D360136843F025
:101D78000103136000202023206484F83D30206391
:101D880084F83E0070BDA16849B903EB4303B0FB7A
:101D9800F3F0C0F30B0363B140F40040D9E7192115
:101DA8004B43B0FBF3F0C0F30B0313B140F44040D6
:101DB800CFE70120CDE7012070BD00BFA08601005C
:101DC80040420F00704770477047000070B50446E6
:101DD80000283FD00225414B80F84150436303F06F
:101DE800FFF92268D36923F47B6323F00F03D361DF
:101DF80063691562022BD56935D0E368002BA368A7
:101E080014BF202610260120202B98BF760000F052
:101E180017FD23696169B3F5007F1FD1E3680A22C2
:101E2800D3B1B300B0FBF3F353430A22B3FBF1F38E
:101E38000533B3FBF2F303F001021202C3F34F03BD
:101E4800991EFD2911D9636C43F010036364204681
:101E5800FFF7BAFF012070BDF300E3E70A23B0FBE8
:101E6800F6F04343E1E70022EAE7134322692068DA
:101E7800666813430362E268A3681343A2691343C5
:101E88009BB246F400611943226A89B20D43012AC4
:101E9800C5611CD1124A62631249134A884218BFAD
:101EA8004FF0402236F40070D16921F47B6121F0B3
:101EB8000F01D1614FF002011162D1690CBF4FF4DB
:101EC8008070002043F4006303430B43D361002078
:101ED8000123606484F8413070BD00BFF51E00081E
:101EE8000120000800380040003400401FB5036896
:101EF8009A68019290F84120042A04463AD1019A3E
:101F0800D10719D55A68520616D5C26A911CC16202
:101F1800D9681180428E013A92B24286428E92B2BC
:101F280052B95A6822F060021204120C5A60012356
:101F380080F84130FFF747FF019B59061AD52368FF
:101F48005A68920616D55A6822F060021204120CDA
:101F58005A6000220292DA6802929B680293029BFE
:101F6800012384F84130636C43F002036364204624
:101F7800FFF72AFF94F84130032B3AD1019B9B07C6
:101F88001BD522685368180617D5636A991C1B88E5
:101F98006162D360638D013B9BB26385638D9BB2A5
:101FA8005BB9536823F0A0031B041B0C5360012387
:101FB80084F841302046FFF705FF019B190718D523
:101FC80023685A68920614D55A6822F0A0021204AF
:101FD800120C5A60002203929B680393039B01230F
:101FE80084F84130636C43F0040363642046FFF7D0
:101FF800EBFE04B010BD70471FB5036892499A689C
:102008000092924A8B4218BF4FF0402204469168D2
:102018000191D96901F44071B1F5007F04D0D96903
:1020280011F4407F40F09780009A92071DD55A68B6
:1020380010061AD5626A911C12886162DA60628D94
:10204800013A92B26285628D92B272B95A6822F0F0
:10205800A0021204120C5A60638E9BB22BB90123A2
:1020680084F841302046FFF7C6FF019BD90722D5E7
:10207800754A2168754B914218BF4FF040235A6842
:10208800520618D5E26A911CE162D9681180628E05
:10209800013A92B26286628E92B262B95A6822F0AE
:1020A80060025A60638D9BB22BB9012384F84130DA
:1020B8002046FFF7A0FF019B580624D562492368F4
:1020C800624A8B4218BF4FF04022516889061AD5E0
:1020D800516821F0600151605A6822F0A002120490
:1020E800120C5A6000220292DA6802929B680293EC
:1020F800029B012384F84130636C43F0020363645C
:102108002046FFF761FE009B1B0722D523685A680B
:1021180090061ED55A684C4922F0A0021204120CEF
:102128005A604A4A8B4218BF4FF04022516821F04A
:1021380060015160002203929B680393039B012373
:1021480084F84130636C43F0040363642046FFF76E
:102158003BFE04B010BD019B99071AD553681B06B6
:1021680017D5436A991C1B884162D360438D013B94
:102178009BB24385438D9BB25BB9536823F0A003A0
:102188005360438E9BB223B9012380F84130FFF797
:1021980032FF009BD8071ED52268536859061AD506
:1021A800E36A991CE162D1681980638E013B9BB296
:1021B8006386638E9BB273B9536823F060031B0474
:1021C8001B0C5360638D9BB22BB9012384F84130FB
:1021D8002046FFF710FF009B5A061DD5226853685A
:1021E8009B0619D55368184923F060031B041B0C80
:1021F8005360164B8A4218BF4FF0402320465A6856
:1022080022F0A0025A60012384F84130636C43F045
:1022180002036364FFF7D8FD019B180799D50A49A3
:1022280022680A4B8A4218BF4FF040235968890632
:102238008FD5596821F0A0015960536823F06003D5
:102248001B041B0C53607AE7003800400034004040
:102258002DE9F341044618B9012002B0BDE8F08128
:102268000368DD0710D42368980758D423681A0731
:1022780000F19A8023685B0700F1B880A269002A00
:1022880040F019810020E8E7A64B9A6802F00C029A
:10229800042A07D09A6802F00C02082A0AD15B685F
:1022A800590207D59F4B1B689A03DCD56368002B3E
:1022B800D9D1D1E763689B4DB3F5803F11D12B6825
:1022C80043F480332B60FEF737FD964D06462B68A6
:1022D8009B03C8D4FEF730FD801B6428F7D9032080
:1022E800BBE7B3F5A02F04D12B6843F480232B6000
:1022F800E5E72A6822F480322A602A6822F48022DC
:102308002A60002BDFD1FEF717FD06462B689F03D6
:10231800A9D5FEF711FD801B6428F7D9DFE7814BAB
:102328009A6812F00C0F07D09A6802F00C02082A7B
:1023380011D15B685E020ED47A4B1A68950702D5F4
:10234800E268012A88D11A68216922F0F80242EA73
:10235800C1021A608AE7E268734BB2B101221A60BF
:10236800FEF7EAFC6F4D06462B68980707D52B68E1
:10237800226923F0F80343EAC2032B6076E7FEF7ED
:10238800DBFC801B0228EFD9A9E71A60FEF7D4FC12
:10239800644D06462B6899077FF568AFFEF7CCFCBD
:1023A800801B0228F6D99AE76269604B7AB101224C
:1023B8001A60FEF7C1FC5B4D06466B6F9F073FF541
:1023C80059AFFEF7B9FC801B0228F6D987E71A60D7
:1023D800FEF7B2FC534D06466B6F98077FF54AAF80
:1023E800FEF7AAFC801B0228F6D978E74D4B1A6C39
:1023F80012F0805228D101921A6C42F080521A646D
:102408001B6C03F080530193019B0126484D2B68F8
:10241800D9051BD5A368434D012B27D12B6F43F05A
:1024280001032B67FEF788FC3E4D074641F28838CA
:102438002B6F9B0739D5002E3FF420AF394A136C18
:1024480023F08053136419E70026DFE72B6843F471
:1024580080732B60FEF770FC07462B68DA05D9D429
:10246800FEF76AFCC01B0228F7D938E7052B04D110
:102478002B6F43F004032B67D0E72A6F22F0010289
:102488002A672A6F22F004022A67002BCAD1FEF7B6
:1024980053FC41F2883807462B6F9807CBD5FEF7D7
:1024A8004BFCC01B4045F7D919E7FEF745FCC01B9C
:1024B8004045BDD913E71B4DAB6803F00C03082B4F
:1024C8003FF4CAAE1B4E0023022A336034D1FEF714
:1024D80033FC07462B6899011ED4226AE36913432B
:1024E800626A43EA8213E26A43EA0263A26A0D4C13
:1024F8005208013A43EA02436B6001233360FEF756
:102508001BFC054623689A013FF5BCAEFEF714FC98
:10251800401B0228F6D9E2E6FEF70EFCC01B022893
:10252800D8D9DCE60038024000004742800E474216
:102538000070004060004742FEF7FEFB04462B682F
:102548009B017FF59FAEFEF7F7FB001B0228F6D92B
:10255800C5E600BF134908B58B6803F00C03042BCC
:1025680003D0082B03D0104808BD104808BD4A689E
:102578004B68496813F4800314BF0C480A48C1F338
:10258800881118BF002302F03F02A1FB0001FEF7EB
:1025980001FA044B5B68C3F3014301335B00B0FBF2
:1025A800F3F008BD003802400024F40000127A005D
:1025B8002DE9F0410D46044610B90120BDE8F0812F
:1025C800444B1A6802F00F028A4228D321688F0709
:1025D8002DD4C80740D43F4B1A6802F00F02954229
:1025E80066D3226851076CD4130707D53A4A216984
:1025F800936823F4604343EAC1039360FFF7AAFF9B
:10260800354B364A9B68C3F30313D35CD840344B2D
:1026180018600020FEF746FB0020BDE8F081CAB232
:102628001A701B6803F00F039942C6D1CEE72A4BF4
:1026380011F0040F1EBF9A6842F4E0529A600E0728
:1026480042BF9A6842F460429A609A68A06822F091
:10265800F00202439A60BCE762681F4B012A1DD151
:102668001B6813F4003FA8D01B4EB36823F0030384
:102678001343B360FEF760FB41F288380746B3683E
:10268800626803F00C03B3EB820FA4D0FEF754FB8F
:10269800C01B4045F3D90320BDE8F081911E0129F4
:1026A8001B6802D813F0007FDDE713F0020FDAE7AA
:1026B800EAB21A701B6803F00F039D427FF47DAFE6
:1026C8008FE70549E0688B6823F4E05303438B6088
:1026D8008AE700BF003C0240003802404C5900081D
:1026E800EC000020014B1868704700BFEC00002088
:1026F800044B054A9B68C3F38223D35C034A1068E2
:10270800D8407047003802405C590008EC000020AF
:10271800036813F0050FF7B5054605D1286810F0D2
:10272800020028D103B0F0BD414C424E0023236083
:10273800FEF702FB074633681B0115D4AB686A68CD
:102748001B0743EA8213C6F8843001232360FEF78F
:10275800F3FA384C064623681801DFD4FEF7ECFA82
:10276800801B0228F7D904E0FEF7E6FAC01B02280E
:10277800E1D90320D6E7002301932E4B2E4C1A6C87
:1027880042F080521A641B6C03F080530193019B42
:10279800236843F480732360FEF7CEFA0646236865
:1027A800D9051BD5234C236F13F440731CD1EB6858
:1027B80003F44072B2F5407F1E4A34D1916823F089
:1027C800704021F4F81120F4407001439160116FBA
:1027D800C3F30B030B4313670020A3E7FEF7ACFA20
:1027E800801B0228DBD9C4E7EA6802F440729342EE
:1027F800DDD0236F114A0121116023F440730021B9
:1028080011602367236FDA07D1D5FEF795FA41F2F5
:1028180088370646236F9B07C9D4FEF78DFA801BBD
:10282800B842F7D9A5E7916821F4F811CEE700BFBF
:10283800680047420038024000700040400E47429E
:10284800012820D1114B9A6812F4000204D0012A01
:102858000F4818BF002070475A680C49586853023F
:10286800D1F884204CBF0B4B0B4B00F03F00B3FB5F
:10287800F0F3D1F88400C2F388125343C0F3027016
:10288800B3FBF0F070470020704700BF00380240EB
:102898000080BB0000127A000024F4002DE9F0410A
:1028A800069E0446884617461D462268936838EAFD
:1028B80003030CBF012300239F4202D10020BDE87F
:1028C800F0816B1CF2D055BB23685A6822F0E002F5
:1028D8005A606268B2F5827F0AD1A268B2F5004FE9
:1028E80002D0B2F5806F03D11A6822F040021A6054
:1028F800A26AB2F5005F09D11A6822F400521204E4
:10290800120C1A601A6842F400521A60012384F803
:102918005130002384F850300320BDE8F081FEF7E1
:102928000BFA801B8542C0D8CEE713B50B46009240
:10293800802100220446FFF7B1FF20B1636D43F008
:1029480020036365032002B010BD10B504460028BB
:1029580036D00023836290F8513003F0FF021BB990
:1029680080F8502002F06EFC2168A068A26902235A
:1029780084F851300B6823F040030B60636803430D
:10298800E06803432069034360690343E069034344
:10299800206A0343A06A034302F4007003430B60F8
:1029A800120C636A02F004021A434A60CB6923F4EA
:1029B8000063CB6100200123606584F8513010BDAD
:1029C800012010BD2DE9F043994690F8503085B0AC
:1029D800012B04460D4616460C9F00F0ED8001239E
:1029E80080F85030FEF7A8F994F851306168DBB2EE
:1029F800012B80460AD0B1F5827F40F0DB80A268C7
:102A0800002A40F0D780042B40F0D480002D4ED00F
:102A1800002E4CD0B9F1000F49D094F85130A6637C
:102A2800012B04BF052384F8513000236365236418
:102A380063642368A4F83E90A4F836901A68A4F852
:102A48003C90500658BF1A68256358BF42F04002B0
:102A5800A4F8349058BF1A60E268B2F5006F5DD1EF
:102A680019B1E28E92B2012A06D135F8022BDA604A
:102A7800E38E013B9BB2E3864FF00109E38E9BB2E4
:102A8800BBB9E38F9BB2A3B9CDF800803B460122C6
:102A980002212046FFF702FF002835D14246394679
:102AA8002046FFF742FF002879D0202363650120E4
:102AB8002BE0B9F1000F0FD0E38E9BB263B123680E
:102AC8009A68910708D535F8022BDA60E38E013B46
:102AD8009BB2E3864FF00009E38F9BB263B1236892
:102AE8009A68D20708D5DB6826F8023BE38F013BDA
:102AF8009BB2E3874FF00109781CBFD0FEF71CF9A1
:102B0800A0EB08008742B9D80320012384F851308C
:102B1800002384F8503005B0BDE8F08319B1E28E87
:102B280092B2012A06D115F8012B1A73E38E013BE4
:102B38009BB2E3864FF00109E38E9BB21BB9E38F8A
:102B48009BB2002BA0D0B9F1000F0FD0E38E9BB23F
:102B580063B123689A68910708D52A781A73E38EB7
:102B6800013B9BB2E38601354FF00009E38F9BB22E
:102B780063B123689A68D20708D5DB683370E38F9E
:102B8800013B9BB2E38701364FF001097B1CD3D090
:102B9800FEF7D2F8A0EB08008742CDD8B4E7A368C7
:102BA800002BB2D123680390DA6803929B680393E1
:102BB800039BAAE70220A8E70220ACE7036A23F0F8
:102BC80001030362036A426870B584690D6824F0E2
:102BD800730425438C6823F0020323430C4CA04262
:102BE80009D004F58064A04205D042604A68856136
:102BF8004263036270BDCC688E6923F008032343E7
:102C08004C6922F44072344323F004032243ECE776
:102C180000000140036A23F480730362036A426878
:102C280070B5C4690D6824F0730425438C6823F4D7
:102C3800007343EA04230E4CA04209D004F58064D3
:102C4800A04205D042604A68C561C263036270BD94
:102C5800CC688E6923F4006343EA04234C6922F4A8
:102C68004052344323F4806342EA0412EAE700BF87
:102C780000000140036A23F48053036230B5046AFC
:102C88004368C2690D6822F4E64242EA05228D686B
:102C980024F4005444EA0534094DA84209D005F546
:102CA8008065A84205D043604B68C2610364046232
:102CB80030BD4D6923F4804343EA8513F3E700BF31
:102CC800000001400368DA6842F00102DA601A681D
:102CD80042F001021A600020704770477047704741
:102CE800704703681A69910710B504460ED5DA686B
:102CF80092070BD56FF002021A619B6901229B07AC
:102D0800027677D0FFF7EAFF0023237623681A6953
:102D1800500710D5DA6851070DD56FF004021A6113
:102D28009B69022213F4407F2276204668D0FFF781
:102D3800D5FF0023237623681A6912070FD5DA68AE
:102D480010070CD56FF008021A61DB690422990795
:102D5800227620465AD0FFF7C1FF00232376236846
:102D68001A69D20610D5DA68D0060DD56FF01002B0
:102D78001A61DB69082213F4407F227620464BD083
:102D8800FFF7ACFF0023237623681A69D10708D51B
:102D9800DA68D20705D56FF001021A61204601F002
:102DA800D5FE23681A69100608D5DA68110605D514
:102DB8006FF080021A61204600F0A9F923681A69A9
:102DC800520608D5DA68500605D56FF040021A6138
:102DD8002046FFF785FF23681A69910622D5DA682D
:102DE80092061FD56FF0200220461A61BDE81040F8
:102DF80000F08CB9FFF771FF2046FFF770FF83E7FB
:102E0800FFF76BFF2046FFF76AFF92E7FFF765FFC2
:102E18002046FFF764FFA0E7FFF75FFF2046FFF7B4
:102E28005EFFAFE710BD00002E4A0368904212D043
:102E3800B0F1804F0FD0A2F57C4290420BD002F542
:102E48008062904207D002F58062904203D002F57A
:102E5800784290421DD14A6823F070031343214AF7
:102E6800904204D1CA6823F44073134328E0B0F1B8
:102E7800804FF7D01C4A9042F4D002F5806290420D
:102E8800F0D002F580629042ECD002F57842904290
:102E9800E8D0164A9042E5D002F580629042E1D02F
:102EA80002F580629042DDD0A2F598329042D9D0E6
:102EB80002F580629042D5D002F580629042D1D06E
:102EC80003608B68C3620B688362064B984206D026
:102ED80003F58063984202D00123436170470B6970
:102EE8000363F9E70000014000040040004001408E
:102EF80010B50446A0B190F8393003F0FF021BB9B1
:102F080080F8382002F00AFA022384F83930206861
:102F1800211DFFF789FF012384F83930002010BDF7
:102F2800012010BD10B50446A0B190F8393003F067
:102F3800FF021BB980F8382002F0D8F9022384F880
:102F480039302068211DFFF76FFF012384F83930DD
:102F5800002010BD012010BD036A23F01003036296
:102F6800036A426870B584690D6824F4E64444EA4B
:102F780005258C6823F0200343EA04130D4CA04276
:102F880009D004F58064A04205D042604A68856192
:102F98008263036270BDCC688E6923F0800343EAC4
:102FA80004134C6922F44062344323F0400342EA9C
:102FB8008402EAE70000014038B590F83830012B68
:102FC80004464FF0020025D0012384F8383084F8F5
:102FD80039000C2A18D8DFE802F0071717171E1750
:102FE80017172F17171740002068FFF7E7FD23680A
:102FF80009699A6942F008029A619A6922F0040202
:103008009A619A690A439A610123002084F8393049
:1030180084F8380038BD2068FFF79EFF23680969E7
:103028009A6942F400629A619A6922F480629A610C
:103038009A6942EA0122E6E72068FFF7EBFD236878
:103048000969DA6942F00802DA61DA6922F00402F1
:10305800DA61DA690A43DA61D6E72068FFF70AFE1F
:1030680023680969DA6942F40062DA61DA6922F4EC
:103078008062DA61DA6942EA0122ECE7036A10B594
:1030880001248C4023EA04030362036A8A401A433A
:10309800026210BD10B5044601220068FFF7EEFF7A
:1030A8002368084A934203D002F58062934203D111
:1030B8005A6C42F400425A641A6842F001021A60DB
:1030C800002010BD0000014090F83830012B10B5E9
:1030D8004FF0020318D080F8393003680C685A683A
:1030E800496822F070025A605A6822435A609A6806
:1030F80022F080029A609A680A439A60012380F855
:103108003930002380F83830184610BD70477047B2
:1031180084B038B505AD85E80E000A9B012B04463E
:1031280026D1836B23F480338363C36823F4840339
:1031380023F04003C360C36823F44013C360119BAA
:10314800012B02BFC36843F48013C36000F08AF800
:10315800089B012B07D1A36843F00603A360A3686B
:1031680043F02003A360BDE83840002004B0704756
:10317800C36843F04003C36000F074F84FF4803331
:10318800A363E5E7836843F0010383600020704789
:10319800836823F0010383600020704708B5C36883
:1031A800012923F0C043C36008D1C36843F000532A
:1031B800C3603220FDF7C6FD002008BD0029F8D104
:1031C800C36843F08043C360F3E70000890141F01E
:1031D8002001064A0161013A05D0036913F0200372
:1031E800F9D1184670470320704700BF410D03000E
:1031F8001023064A0361013A05D0036913F010034E
:10320800F9D1184670470320704700BF410D0300ED
:1032180010B59DF808404CB9033300F5805023F0F1
:10322800030300EB02320B44994201D1002010BD88
:1032380051F8040B1060F7E7033222F003020A4446
:1032480000F58050914201D108467047036841F863
:10325800043BF7E74269806910407047406900F015
:10326800010070470A4B013B01D1032070470269F6
:10327800002AF8DA0369064A43F001030361013AB8
:10328800F3D0036913F00103F9D11846704700BF62
:10329800410D030084B038B5044605A880E80E0047
:1032A8000023C4F8003EA36B23F48023A363A36B1D
:1032B80023F40023A363A36B43F40013A363079BC6
:1032C800032BD4F800343CD1B4F1A04F39D043F0EB
:1032D8000403C4F8003410212046FFF777FF204686
:1032E800FFF786FF0023069904F5A0624FF0FF3030
:1032F8001D468B422AD10121204600F073F8C820D0
:10330800FDF720FD0023A361B4F1A04F4FF0FF3378
:10331800636120D18023636203F5C003A362134B6A
:10332800C4F80031089B1BB9A36943F01003A361DB
:10333800A2690F4B1343A361BDE83840002004B0D5
:10334800704723F00403C4F80034C4E790600133E5
:10335800D5602032CDE74FF40073636203F18073C8
:10336800A362044BC4F80031DCE700BFE000400072
:10337800080020A30003E000D0F8003423F0030382
:1033880010B5C0F80034D0F8004401F0030323431B
:10339800012900F58062C0F8003404D14BF680336F
:1033A8005360002010BD022904BF41F270735360BE
:1033B800F7E713B5D0F840340193019B23F02E03AF
:1033C8000193019B43F480730446C0F840340A20FB
:1033D800FDF7B8FC019B002023F48073C4F8403447
:1033E80002B010BD82B0D0F840340193019B23F0A5
:1033F8002E030193019BDA0406D4012902BF019B25
:1034080043F48053C0F84034019BDB0405D521B94F
:10341800019B23F48053C0F84034002002B0704769
:1034280082B0D0F8403401930198C0F3414002B013
:10343800704700F58060806880B27047F0B500F58D
:10344800A06404EB41149DF818504FF0FF36A660B5
:1034580057B2032D14D8DFE805F00253024D40F2AD
:103468009D46002FE66004DAE66846F48076E6605A
:1034780006E0B0F1A04F03D0E66846F06006E660CB
:10348800D0F818C4012606FA01F141EA0C01C0F887
:10349800181481699B05D20241F0007103F0FE53B4
:1034A80002F4F04281611A43BDF81C109DF81430F3
:1034B800002FB4BF4FF400460026C1F30A01022BC7
:1034C8004FEA854342EA010203F4402343EA020338
:1034D80000F5806E43EA06030CBF4FF4003000206D
:1034E80003432360032D02BF236843F00053236086
:1034F8000020F0BD40F29D66002FE660C0DAB3E719
:1035080040F22526E660002FBEBFE66846F4C07686
:10351800E660B5E780B58AB002AFF860B9601346D7
:10352800FB7100237B7700237B830023FB834FF40D
:1035380080733B8300237B61FB68B3F1A04F2BD0E2
:10354800BB681B79002B27D1FB79002B0BD1BB68FB
:103558005B79012B07D1BB685B781946F86800F0E6
:103568000FFA00230DE1FB79012B15D1BB685B78BD
:103578005A01FB68134403F5A0631946BB685B78DE
:103588005A01FB68134403F5A063DB6823F060036A
:10359800CB60BB6800225A71BB681B69002B19D02D
:1035A800BB681B69BA6812891344013BBA6812895F
:1035B800B3FBF2F3FB83FA8B3B8B9A420CD93B8B20
:1035C800FB83FB8BBA68128902FB03F31A46BB68BC
:1035D8001A6101E00123FB83BB68DB78002B07D06D
:1035E800FB8BBA68128902FB03F31A46BB681A619F
:1035F800BB685B785A01FB68134403F5A06319465E
:10360800BB681B69C3F31202FB8BDB0418465F4BD4
:1036180003401A43BB689B7A5B0703F0C04313431C
:103628000B61FB79002B0AD0BB685B785A01FB68F9
:10363800134403F5A0631A46BB68DB685361FB6853
:1036480003F580639B6803F00103002B0CBF012383
:103658000023DBB27B77BB685B785A01FB681344B5
:1036680003F5A0631946BB685B785A01FB681344ED
:1036780003F5A0631B6823F000530B60BB685B78FD
:103688005A01FB68134403F5A0631946BB685B78CD
:103698005A01FB68134403F5A0631B687A7F52073D
:1036A80013430B60BB685B785A01FB68134403F54E
:1036B800A0631B687B617B6923F080437B617B6926
:1036C80043F000437B61BB685B785A01FB68134495
:1036D80003F5A0631A467B691360FB79002B4FD171
:1036E800BB68DB78002B4BD1BB681B69002B47D02C
:1036F800BB68DB79032B31D801A252F823F000BF55
:10370800193700083D370008193700083D37000809
:10371800BB681B6903339B087B837A8BFB68DB6A76
:103728009BB29A421CD9FB689B6943F02002FB6854
:103738009A6115E0BB681B6903339B087B837A8B0E
:10374800FB6803F580631B699BB29A420AD9FB6840
:103758009B6943F08062FB689A6103E000BF02E066
:1037680000BF00E000BFBB68D968BB685A78BB6877
:103778001B6998B2002300930346F868FFF748FDD9
:10378800002318462037BD4680BD00BF0000F81F43
:1037980080B483B000AF78607B6803F580635B69B1
:1037A8009BB218460C37BD465DF8047B704780B461
:1037B80085B000AF78600B46FB700023FB60FB7898
:1037C8005A017B68134403F5A0631B689B0C03F044
:1037D8000303002B0BD0FB785A017B68134403F5D5
:1037E800A0631B689B0C03F00303022B60D1FB78DA
:1037F8005A017B68134403F5A0631946FB785A0104
:103808007B68134403F5A0631B6843F080430B6097
:103818007B68DB6A03F47F03002B35D1FB785A0100
:103828007B68134403F5A0631946FB785A017B684B
:10383800134403F5A0631B6823F000430B60FB7877
:103848005A017B68134403F5A0631946FB785A01B3
:103858007B68134403F5A0631B6843F000430B60C7
:10386800FB680133FB60FB68B3F57A7F1ED8FB78F1
:103878005A017B68134403F5A0631B6803F00043F7
:10388800B3F1004FECD074E0FB785A017B68134425
:1038980003F5A0631946FB785A017B68134403F5C6
:1038A800A0631B6843F000430B6062E000BF60E068
:1038B800FB785A017B68134403F5A0631946FB782B
:1038C8005A017B68134403F5A0631B6843F08043E7
:1038D8000B607B6803F580631B699BB2002B35D1B5
:1038E800FB785A017B68134403F5A0631946FB78FB
:1038F8005A017B68134403F5A0631B6823F0004357
:103908000B60FB785A017B68134403F5A0631946E2
:10391800FB785A017B68134403F5A0631B6843F0E6
:1039280000430B60FB680133FB60FB68B3F57A7FEB
:103938001ED8FB785A017B68134403F5A0631B6803
:1039480003F00043B3F1004FECD012E0FB785A01CA
:103958007B68134403F5A0631946FB785A017B681A
:10396800134403F5A0631B6843F000430B6000E0B9
:1039780000BF002318461437BD465DF8047B704726
:1039880080B485B000AF78600B46FB700123FB73F1
:103998000023BB60FB785A017B68134403F5A063DE
:1039A8001A46FB7BDB041946124B0B4043F00043DD
:1039B8001361FB785A017B68134403F5A0631B6805
:1039C800BB60BB6823F08043BB60BB6843F0004327
:1039D800BB60FB785A017B68134403F5A0631A4661
:1039E800BB681360002318461437BD465DF8047B96
:1039F800704700BF0000F81F80B586B000AF786040
:103A080000233B617868FFF7C3FB10217868FFF754
:103A1800DDFB7868FFF7ECFB0023FB751FE0FB7DFF
:103A28005A017B68134403F5A0631B68FB60FB68BD
:103A380043F08043FB60FB6823F00043FB60FB68B6
:103A480023F40043FB60FB7D5A017B68134403F5B4
:103A5800A0631A46FB681360FB7D0133FB75FB7D91
:103A68000F2BDCD90023FB7534E0FB7D5A017B6802
:103A7800134403F5A0631B68FB60FB6843F08043B5
:103A8800FB60FB6843F00043FB60FB6823F40043E2
:103A9800FB60FB7D5A017B68134403F5A0631A465B
:103AA800FB6813603B6901333B613B69B3F57A7F7F
:103AB8000CD8FB7D5A017B68134403F5A0631B688F
:103AC80003F00043B3F1004FECD000E000BFFB7DF2
:103AD8000133FB75FB7D0F2BC7D97B6803F580632A
:103AE8001A464FF0FF3353617B684FF0FF325A613B
:103AF8007868FFF747FB002318461837BD4680BD96
:103B08000020704738B5D0F87433DC692178054651
:103B180039B100F0EDFD2178284600F006FE0023BB
:103B28002370217B41B1284600F0E2FD217B284625
:103B380000F0FBFD00232373617B41B1284600F0B0
:103B4800D7FD617B284600F0F0FD00236373D5F8AC
:103B58007433D86928B101F013FED5F87433002204
:103B6800DA61002038BDF0B5022285B00123114684
:103B7800054600F0B4F9FF28064602D1022005B038
:103B8800F0BD0146284600F0A1F95020D5F874731D
:103B980001F0EEFD1A2303FB0656F86196F8483348
:103BA8001A0642BF4370B6F84A3343810446417847
:103BB800284600F0A2FD014620706089029003208B
:103BC800019095F81D0395F81C33627800902846FB
:103BD80000F07FFD00222178284601F060FD0023D7
:103BE8001A460A21284600F07AF9FF28C6D01A2377
:103BF80003FB005103FB005091F8482390F8503321
:103C0800B1F84A1312F0800F0DBFA273E2736183FB
:103C1800218313F0800F08BFA373B0F85223A17B50
:103C280018BFE373284614BF6283228300F065FD42
:103C3800E17B6073284600F060FD2073208B0290C2
:103C4800022695F81D0395F81C33A27B617B01962B
:103C58000090284600F03DFD608B029095F81D030A
:103C680095F81C33E27B217B0196009000262846BC
:103C780000F02FFD3246617B84F84C60284601F045
:103C88000EFD3246217B284601F009FD304676E7D5
:103C980038B5D0F87433D969A12303742123437448
:103CA8000722002343828382C2824031044600F007
:103CB80097FA054620B9D4F8C4330221204698471C
:103CC800284638BD704770477047D0F8743373B5CD
:103CD800DC6994F84C300546042B3DD8DFE803F046
:103CE80003061742A800002002B070BD2123A16C72
:103CF8000374202343740722002343828382C282F1
:103D080000F06EFA50BB022384F84C3024E0A12363
:103D18000374212343740722002343828382C282CF
:103D280004F1400100F05CFAC0B9626CA36C84F83D
:103D38004C0002F0FF115A6802F0FF1291420BD1B9
:103D480094F845105A79914206D1226C1B689A4220
:103D580002D12846FFF7B8FF0120C5E70128FBD0AC
:103D68000423D1E794F84D10012923D0022930D03B
:103D7800D5F87433DE6996F84E30032B47D0042B00
:103D8800EAD1317B284601F079FC0128E4D1317B66
:103D9800284601F02FFCB36A82B29342104640D005
:103DA800718B91423DD29B1AB362336A18443062D8
:103DB800032333E0606A228B637B0091904298BFB3
:103DC80082B2E169284600F05DFC022384F84D3098
:103DD800CEE7617B01F052FC012815D1636A228B82
:103DE800934283BF9B1A6362E36900238ABF9B18CF
:103DF8006362E361636A0BB10123E7E784F84D303E
:103E08002846FFF75FFFB3E70228B1D1F4E7337B19
:103E1800728B316A284600F04CFC042386F84E3039
:103E28009AE7002386F84E302846FFF74CFF93E7C1
:103E3800002100F0E1FB00288ED184F84C008BE7CC
:103E480000F55F7300F56E72002143F8041B93427E
:103E5800FBD100F58E7200F54771002302F8013B93
:103E68009142FBD101224021037043708270C0F857
:103E7800B83302768171437680F81C3380F81D23AD
:103E88000020704738B50D46044680B1002380F8FD
:103E9800BC23C0F87433C0F87833FFF7D1FF0DB1F5
:103EA800C4F8C453204601F041FB002038BD02206D
:103EB80038BD49B1D0F8783333B90122C0F8782336
:103EC800C0F87013184670470220704790F83633D0
:103ED8008B4286BF80F81F1300200220704730B540
:103EE800002490F841538D4201D0FF290DD190F85C
:103EF8004253954201D0FF2A07D190F843539D427F
:103F080001D1E0B230BDFF2BFBD00134022C00F10F
:103F18001A00E6D1FF2030BD10B5044601F032FB8F
:103F28000121204601F0AEFB002010BD30B587B05E
:103F380002238DF81730037804460A2B17D8DFE8D8
:103F480013F00B0016001900010116004900E900E2
:103F5800B800C100CA00F90090F81E333BB1012334
:103F68000370C82001F0AAFB204601F035FB0020B1
:103F780007B030BD642001F0A1FB204601F01EFB14
:103F88000523237084F81D030021204600F0B5FBAB
:103F980080216071204600F0B0FBA27994F81C33B0
:103FA800207101460292002594F81D230092019584
:103FB8008022204600F08DFBA279029294F81D23FE
:103FC800009294F81C33617901952A46204600F046
:103FD80080FBCCE74378072BC9D8DFE803F004144B
:103FE8001C2D343C4855082100F0D3F9054600281B
:103FF800BDD1012394F827236370217994F81C33E9
:10400800A2710292D0E7122100F0C3F90028AED1C4
:1040180002236370ABE7012100F0D2FA05460028BD
:10402800A5D1022001F04AFB03220123627084F823
:104038001C332179A279E4E7092100F003FA00286A
:1040480095D10423E5E7B0F8341300F0FBF9002814
:104058008DD10523DDE790F82E1331B1FF2300F54C
:104068008E7200F086FA002881D10623D1E790F8F5
:104078002F1339B1FF2300F58E7200F07AFA002869
:104088007FF475AF0723C4E790F8301339B1FF23E5
:1040980000F58E7200F06DFA00287FF468AF0023F7
:1040A80084F81F3394F83133012B09D00723237088
:1040B8005DE7D0F8C433002B3FF459AF012198478E
:1040C8000823F4E790F8371300F088FA00287FF403
:1040D8004EAF0923EBE7D0F87833002B3FF447AF16
:1040E8000023C0F87433D0F8703390F8412319795D
:1040F800914208BFC0F87433D0F87433C3B19B68D9
:104108009847A8B9062323700321D4F8C43320465E
:1041180098472CE7D0F8743353B11B6998478DF84A
:1041280017009DF81730002B7FF421AF0A23BEE754
:104138000C23BCE7D0F87433002B3FF418AF5B694D
:10414800984714E7FFF77CFED4F87433002B3FF44C
:104158000EAFDB68204698470023C4F8743306E79F
:10416800C0F8B8137047D0F8B8230132C0F8B823A4
:1041780002780A2A04D1D0F874330BB19B69184726
:104188007047027808B54AB9D0F8C433012280F8DC
:104198001E230BB104219847002008BD0278012A8C
:1041A80004BF02220270F7E710B5044601F0F8F9DF
:1041B8002179204600F0B9FA6179204600F0B5FA75
:1041C800002384F81E33D4F8C43313B105212046E4
:1041D8009847204601F0D6F903232370002010BD2C
:1041E80037B504468078012803D0022808D001207A
:1041F80004E00223A160A2812076A37003B030BD41
:10420800237E013B0A2BF2D8DFE803F0060F2631A4
:104218003D4A606B7C899200627904F11001204666
:1042280000F0F8F902232376E1E76179204601F0EE
:1042380025FA012823D1E28A94F9103032B1002BF3
:1042480002DA03232376D9E70523ECE7002B01DA0A
:104258000923E8E70723E6E7D4F8B833E381A2891E
:104268002379A168204600F0FDF90423DBE72179D2
:10427800204601F003FA0128EAD005281AD00428BC
:10428800B5D10B23CFE701256379A2890095A168F1
:10429800204600F0D0F9D4F8B833E3810623C2E70A
:1042A8006179204601F0EAF90128D3D0052803D125
:1042B8000C2323760320A1E70228C5D0042896D131
:1042C8000B2323760123A370022097E7002223798A
:1042D8001146204600F0C6F9D4F8B833E381082324
:1042E800A1E72179204601F0C9F9012804D1012369
:1042F8000020A370207681E70428C2D005287FF427
:1043080076AFD7E70022012563790095114620464C
:1043180000F091F9D4F8B833E3810A2383E761798F
:10432800204601F0ABF90128E1D00228A7D18FE798
:10433800637E0133DBB2022B637606D8204601F098
:104348002FF901202076A07058E7D4F8C43306214D
:104358002046984700236376B4E730B48478BDF8E4
:104368000850012C10D161F07F04047402F47F44DA
:10437800B4F5407F42824FF006010CBF40F209427B
:10438800002241748282C5822A46194630BCFFF752
:1043980027BF37B500F58E730D4600914FF4807234
:1043A80000210446FFF7D9FF002849D194F81C31B1
:1043B80084F8203394F81D3184F8213394F81F21B0
:1043C80094F81E3103EB0223A4F8223394F8203129
:1043D80084F8243394F8213184F8253394F8223171
:1043E80084F82633082D94F8233184F8273327D905
:1043F80094F8252194F8243103EB0223A4F82833F8
:1044080094F8272194F8263103EB0223A4F82A33E1
:1044180094F8292194F8283103EB0223A4F82C33CB
:1044280094F82A3184F82E3394F82B3184F82F33FA
:1044380094F82C3184F8303394F82D3184F83133E2
:1044480003B030BD2DE9F34700F11C050F4600917C
:104458002B464FF4007200210446FFF77EFF68BB2D
:10446800237F84F83233637F84F83333A67FE37F76
:1044780006EB032694F8203084F8363394F821307C
:1044880084F8373394F8223084F8383394F823309A
:1044980084F83933B6B294F82430A4F83463092F79
:1044A80084F83A330AD922462B46864609214FF02A
:1044B8001A08BEF1020F01D08E4202D802B0BDE840
:1044C800F0871D782B4429445D78042D89B2F0D1FA
:1044D8001D7882F83C535D7882F83D539D7882F8C8
:1044E8003E53DD7882F83F531D7982F840535D7959
:1044F80082F841539D7982F84253DD7982F843531B
:104508001D7A82F8445308FB0EF9002592F840738F
:10451800BD4203DB0EF1010E1A32CAE78E42F9D909
:104528001F783B4439445F78052F89B2EED16F1C60
:1045380009EBC705254493F800C085F83EC393F8F6
:1045480001C085F83FC393F802C085F840C393F8CB
:1045580003C085F841C393F805A093F804C00CEB99
:104568000A2CA5F842C393F806C085F844C37DB267
:10457800CCE7F7B500F58E7514461F46009341F455
:1045880040722B4600210646FFF7E7FE78B996F8F9
:104598001D31032B0BD196F81C31023BBB42A8BF3F
:1045A8003B469BB20246934203D80023237003B0D4
:1045B800F0BDA9180232897804F8011B92B2F2E71B
:1045C8008378012B06D100230522037442744182AB
:1045D8008382C38200221146FFF702BE8378012B33
:1045E80006D1002309220374427441828382C38264
:1045F80000221146FFF7F4BD8378012B06D1022271
:1046080043740023027443828182C38200221146CC
:10461800FFF7E6BD30B585B00024154608230293A0
:1046280001910394009423462246294601F00CF890
:10463800204605B030BD30B590F81D5385B0002D2B
:104648001C469DF82030029218BF002303930123D3
:104658000093002301911A46214600F0F5FF00203F
:1046680005B030BD30B585B000241D460292012248
:104678000191039400922346294600F0E5FF204665
:1046880005B030BD30B590F81D5385B0002D1C46DF
:104698009DF82030029218BF002303930123019153
:1046A800009300220223214600F0CEFF002005B02F
:1046B80030BD30B585B01D4600240292012201911B
:1046C800039400920223294600F0BEFF204605B05D
:1046D80030BD1FB5BDF8204002949DF81C400194E0
:1046E8009DF81840009400F089FF002004B010BD28
:1046F80008B500F09BFF002008BD30B5002300F589
:104708005F7454F8045B2D04DAB208D400EB83001C
:1047180041F4004192B2C0F87C13D0B230BD0133ED
:104728000B2BEED14FF6FF72F7E70A299FBF00EB7C
:104738008100D0F87C33C3F30E03C0F87C3300202B
:104748007047000002280A460AD003280DD0012825
:1047580010D101B102464FF400710748FCF772BE50
:1047680001B101224FF48061F7E701B101224FF452
:104778000061F2E7704700BF000C024002284FEAD0
:10478800C10107D0032809D001280AD1054B1B68AD
:1047980059637047034B1B6899637047014B1B684B
:1047A800D96370472802002010B50F4C86B000224C
:1047B800ADF80E004FF480512046FCF743FE4FF051
:1047C800FF3300930DF1170201230DF10E01074885
:1047D800FEF7F8F8204601224FF48051FCF732FE2C
:1047E8009DF8170006B010BD00040240D00100205B
:1047F80010B5224C2DED028B2046FCF75BFB0A21FD
:104808002046FCF7D5FB2046FCF722FC07EE900A71
:104818009FED1B8A1B4BB8EE677A0A2127EE087AB0
:104828002046BDEEC77A83ED007AFCF7C1FB20462F
:10483800FCF70EFC07EE900AB8EE677A124B27EEEB
:10484800087A0A21BDEEC77A204683ED007AFCF784
:10485800AFFB2046FCF7FCFB07EE900AF8EE677A00
:104868000A4B67EE887ABDEC028BFDEEE77A2046AC
:10487800BDE81040C3ED007AFCF77CBB3C03002088
:10488800E54C4E40A4010020A8010020AC01002006
:1048980008B50A210848FCF78BFB60B90648FCF705
:1048A80009FB0548FCF7D4FB044B18800248BDE817
:1048B8000840FCF7FFBA08BD6402002098010020F8
:1048C80010B580210B48FCF7B7FD4FF48071041C2C
:1048D800084818BF0124FCF7AFFD08B144F00204F2
:1048E8004FF400710348FCF7A7FD08B144F0040435
:1048F800204610BD0010024031A1D1E9000108B5E1
:10490800254BC3E900011EA1D1E90001234BC3E9EE
:1049180000011DA1D1E90001214BC3E900011CA13F
:10492800D1E900011F4BC3E900011F4B1A681F4B57
:1049380018681F4B824207DD1E490968884203DA5E
:104948001D490968884215DB801A18601B4B002234
:104958001A60FBF787FD0CA3D3E90023FBF7E8FDFA
:1049680000220023FBF732FCFBF7F4FF622828BF84
:10497800622008BD0020186008BD00BFAFF30080AA
:104988009A9999999999B93FE17A14AE47E1CA3F42
:10499800CCCCCCCCCCCC104088010020900100209D
:1049A8008001002078010020A4010020E8000020F8
:1049B800B8010020A8010020AC010020B0010020AF
:1049C800666666666666D63F2DE9F84F394B1F78EE
:1049D800394B1B88B3F5FA7F2DD3DFF8E080DFF879
:1049E800E0A00025C14655F80830BB4204D0103578
:1049F800602DF8D1BDE8F88F012409EB050B5BF8B1
:104A080024602EB931462046FFF79CFE002107E0BE
:104A1800012E0CD100212046FFF794FEDAF8001091
:104A28002046FFF7ABFE0134042CE8D1DFE7022E65
:104A3800F9D10121E7E7B3F5EB7F2DD8DFF88480C2
:104A4800DFF87CA00025C14655F80830BB4204D0E9
:104A58001035602DF8D1BDE8F88F012409EB050B5E
:104A68005BF824602EB931462046FFF76BFE002123
:104A780007E0012E0CD100212046FFF763FEDAF88B
:104A880000102046FFF77AFE0134042CE8D1DFE756
:104A9800022EF9D10121E7E7012420460021FFF782
:104AA80051FE204600210134FFF768FE042CF4D1A2
:104AB800BDE8F88F9A010020980100202800002006
:104AC800A00100208800002008B5FFF715FF184B4B
:104AD800184A1860184B1B88B3F5F27F11D80521C6
:104AE800B3FBF1F3C3F164031360FFF781FEFFF733
:104AF800E7FE124B1870FFF7CBFEBDE80840FFF742
:104B080063BF07EE903A9FED0E7ADFED0E6AF8EE7E
:104B1800E77A77EEC77A87EEA67ADFED0B7A37EE7B
:104B2800077A27EE277ABCEEC77A82ED007ADCE7AF
:104B38009C010020A0010020980100209A0100207B
:104B480000F0FF4300F07F440000C8420268044BB5
:104B58009A4204D14FF400410248FCF778BC7047F0
:104B680000140040000C024030B599B02D4B0021D4
:104B780001911A6C42F080521A641B6C03F0805346
:104B88000193019B284B02911A6842F480421A60F3
:104B98001B6803F480430293029B4FF480330D9308
:104BA8004FF480031393082314934FF4A87302243B
:104BB800012515930CA807230C95129416941793A6
:104BC800FDF746FB00B1FEE70F2307934FF4A05310
:104BD80009900A9305214FF4805307A808940B9372
:104BE800FDF7E6FC00B1FEE7C02303A80594039592
:104BF8000493FDF78DFD044600B1FEE7FDF772FD55
:104C08004FF47A73B0FBF3F0FCF70EFB0420FCF7CB
:104C180021FB224621464FF0FF30FCF7C5FA19B0B8
:104C280030BD00BF003802400070004080B590B031
:104C38000024FCF75BF8FFF797FF9D4B01941A6B74
:104C48009C489D4F42F010021A631A6B02F0100242
:104C58000192019A02941A6B42F004021A631A6BC9
:104C680002F004020292029A03941A6B42F0800244
:104C78001A631A6B02F080020392039A04941A6B67
:104C880042F001021A631A6B02F001020492049ABC
:104C980005941A6B42F002021A631A6B02F00202C0
:104CA8000592059A06941A6B42F008021A631B6B68
:104CB80003F00803069322460821069BFCF7C2FB73
:104CC800012211467D48FCF7BDFB224648F61061DB
:104CD8007B48FCF7B7FB0125082609A97548099602
:104CE8000A950B940C94FCF7C7FA09A9734809951F
:104CF8004FF005080A950B940C94FCF7BDFA099639
:104D080009A902266D480A960B940C94CDF83480B4
:104D1800FCF7B2FA09A96B480A9709950B94FCF7B6
:104D2800ABFA042309A9684809930A940B94FCF781
:104D3800A3FA4FF4607309A95E4809930A940B9586
:104D4800FCF79AFA4FF4806309A95F4809930A9619
:104D58000B940C94CDF83480FCF78EFA48F6106367
:104D680009A9574809930A950B940C94FCF784FAFF
:104D7800202309A9524809930A940B94FCF77CFA5A
:104D88004C480A9709A909960B94504FFCF774FAF6
:104D98004F48504B846080E888004FF48043C460DB
:104DA800036144618461C4610462FCF79DFF00B142
:104DB800FEE7494B494A98604FF4007483E81400B1
:104DC800D860474A9861D861186218461C615A61D0
:104DD800FCF7FCFF00B1FEE7424B434998604FF4F3
:104DE800827283E80600D86018615861D861186239
:104DF800586298620A2218469C61DA62FDF7A5FD9E
:104E0800074600B1FEE700F02DFB384C384A256113
:104E18004FF480334FF0807884E80C012046354BFE
:104E2800A5614FF003082762E762A362E760C4F850
:104E38001C8027636561FBF799FF00B1FEE7072334
:104E480009A9204609950A950B93FCF705F900B1C5
:104E5800FEE709A9204609960A96FCF7FDF800B175
:104E6800FEE709A92046CDF82480CDF82880FCF774
:104E7800F3F800B1FEE7204B204A986083E824004D
:104E8800186140F2E7321846DA60FEF731F800B1EF
:104E9800FEE71B4C1B4BA06042F2CF0C84E80810C5
:104EA800204641F28733E360FEF722F860B3FEE75D
:104EB80000380240001002400000121000080240B2
:104EC800000C02400000024000040240A0860100DD
:104ED800AC0200200054004018040020003C0040B0
:104EE8000077010084030020003001403C030020CB
:104EF800002001400100000F000300200044014091
:104F0800DC0300200014004009900A9009A92046FB
:104F1800FEF7DAF800B1FEE749484A4B4FF4827EC3
:104F28004FF4006280E8084000238360C260036198
:104F380043614FF48022C3610362436283620A23A0
:104F48008261C362FDF701FD00B1FEE73E4D3F4BB4
:104F5800A860012785E88800286140F2E7332846E1
:104F6800EB60FDF7DFFF00B1FEE70790089007A9A7
:104F78002846FEF7A9F8024600B1FEE760230A902A
:104F88000B900D9009A928460993FEF715F800B172
:104F9800FEE7042209A92846FEF70EF800B1FEE74D
:104FA800082209A92846FEF707F8064600B1FEE7D9
:104FB800284600F0E9F9264C264926614FF080730F
:104FC8004FF4803284E80E002046234BA661266207
:104FD800E662A362E660E76126636761FBF7C6FEE7
:104FE80000B1FEE70B90082609A920460A97099602
:104FF800FCF732F8074600B1FEE71848FDF762FEF5
:105008001748FDF75FFE39462846FEF743F80421A6
:105018002846FEF73FF831462846FEF73BF8114888
:10502800FBF748FF2046FBF745FF4BF61620FFF736
:10503800BBFB0D4B1880FFF747FD00F029FAFAE794
:10504800D00100200038004028020020000800405D
:1050580064020020002101400100000FDC03002051
:10506800000300203C030020B4010020FEE70000FC
:1050780013B5224B002400945A6C42F480425A64BF
:105088005A6C02F480420092009A01941A6C42F021
:1050980080521A641B6C03F0805301930720019B14
:1050A800FCF770F8224621466FF00B00FCF77CF8FD
:1050B800224621466FF00A00FCF776F82246214680
:1050C8006FF00900FCF770F8224621466FF00400E3
:1050D800FCF76AF8224621466FF00300FCF764F8F3
:1050E800224621466FF00100FCF75EF82246214671
:1050F8004FF0FF30FCF758F802B010BD00380240FE
:1051080030B503681C4A934289B016D100211B4B65
:1051180001915A6C1A4842F480725A645B6C05918A
:1051280003F480730193019B0E23039303230493D9
:1051380003A9FCF7A1F809B030BD124A9342FAD18D
:1051480000240E4B02945A6C0D4842F400725A64C3
:105158005B6C059403F400730293029B03250223FE
:1051680003A903930495FCF787F801230393049597
:10517800059403A90448DCE70020014000380240F8
:1051880000000240002101400004024010B50268FE
:10519800104B9A4286B01AD14FF410730193122320
:1051A800029301230393042300240DEB03010A480F
:1051B80005930494FCF760F8084B00941A6C42F4C9
:1051C80000121A641B6C03F400130093009B06B0D2
:1051D80010BD00BF005400400004024000380240E7
:1051E80070B50268144B9A4286B023D1002403F5A7
:1051F800FE3300941A6C114842F400421A641B6C86
:10520800039403F400430093009B049410230226A4
:10521800062501A9019302960595FCF72DF84FF490
:10522800A45301A906480193029603940494059592
:10523800FCF722F806B070BD003C004000000240B8
:1052480000080240F0B50368224A934289B01AD197
:10525800002302F584320193516C1F4841F48051B8
:105268005164526C059302F480520192019A06939C
:10527800E0220392052302220492079303A9FBF775
:10528800FBFF09B0F0BD154A9342FAD10024144B34
:1052980002941A6C134842F480421A641B6C0594F9
:1052A80003F480430293029B022704230326052567
:1052B80003A90393049706960795FBF7DDFF4FF4C0
:1052C80030430393049705940696079503A9064867
:1052D800D5E700BF00300140000002400038004020
:1052E8000038024000080240000402400268094BEE
:1052F8009A4282B00BD100230193074B1A6C42F0FB
:1053080004021A641B6C03F004030193019B02B0AE
:10531800704700BF000800400038024007B5036826
:10532800164A934215D10022154B0092196C41F090
:10533800200119641B6C03F02003009337201146E9
:10534800009BFBF731FF3720FBF762FF03B05DF8E6
:1053580004FB0C4A9342F9D10022094B0192596C83
:1053680041F4003159645B6C03F400330193192054
:105378001146019BFBF718FF1920E5E700140040D0
:1053880000380240004401407FB50268094B9A4248
:105398000CD14FF4E0430022019301A902230648EF
:1053A8000293039204920593FBF766FF07B05DF83A
:1053B80004FB00BF00080040000C02407047704723
:1053C80008B5FBF7ADFCBDE80840FBF750BF00008F
:1053D8000148FDF786BC00BF000300200148FDF727
:1053E80080BC00BFDC0300200148FCF733B900BFD4
:1053F800280800200F49D1F8883043F47003C1F819
:1054080088300D4B1A68002042F001021A6098603B
:105418001A6822F0847222F480321A60074A5A60AD
:105428001A6822F480221A60D8604FF000638B60FB
:10543800704700BF00ED00E0003802401030002443
:1054480004290AD0052904D0022905D1044B197072
:1054580070470322024B1A7070470122FAE700BF17
:10546800BC01002010B5074C074901222046FEF771
:1054780009FD20460549FEF71CFD2046BDE8104001
:10548800FEF74ABD600400204954000808000020C7
:105498000148FEF74BBD00BF6004002010B503684B
:1054A800B3F1A04F86B02DD100244FF4007301A9A9
:1054B8001548019302940394FBF7DEFE4FF4E05382
:1054C80001930223029301A90A230F480593039429
:1054D8000494FBF7D1FE0D4B5A6B42F080025A63DD
:1054E80000945A6C42F480425A645B6C03F4804323
:1054F8000093432022462146009BFBF755FE43209C
:10550800FBF786FE06B010BD0000024000380240DE
:10551800D0F89402FEF727BED0F89402FEF731BE09
:10552800D0F89402FEF740BE7047000010B590F81E
:10553800BC33012B04461ED11048C4F8C0034FF0F9
:10554800A0430360082383600323C360022200236F
:10555800C0F8944203618261C361FBF7BFFF18B1D1
:10556800E2210748FFF782FD0448FCF7B7FB014634
:105578002046FEF7F5FD002010BD00BF28080020DA
:105588006B59000808B5D0F8C003FCF771FB032875
:105598009ABF024B185C022008BD00BF675900087B
:1055A80008B5D0F8C003FCF779FB03289ABF024B73
:1055B800185C022008BD00BF6759000808B5D0F87C
:1055C800C003FCF78EFB02289ABF024B185C01202F
:1055D80008BD00BF6459000808B5D0F8C003FCF73F
:1055E8006FFB03289ABF024B185C022008BD00BF5E
:1055F80067590008D0F8C003FCF76BBB1FB5BDF8AE
:10560800204002949DF81C4001949DF81840009495
:10561800D0F8C003FBF71FFF03289ABF024B185CA2
:10562800022004B010BD00BF6759000808B5D0F8C3
:10563800C003FBF741FF03289ABF024B185C022006
:1056480008BD00BF675900081FB59DF824400394A2
:10565800BDF820400294079C01949DF818400094DE
:10566800D0F8C003FBF776FF03289ABF024B185CFB
:10567800022004B010BD00BF67590008D0F8C0036D
:10568800FCF721BB08B590F8BC33012B02D10846C2
:1056980000F016F8C820FBF755FB002008BDD0F82D
:1056A800C003282303FB010191F83B301BB181F8AB
:1056B80050200020704781F85120FAE7FBF742BBE1
:1056C800B0FA80F2520901210148FBF7BBBE00BFC6
:1056D80000080240DFF834D0002103E00C4B5B588F
:1056E800435004310B480C4B42189A42F6D30B4AEC
:1056F80002E0002342F8043B094B9A42F9D3FFF732
:1057080079FE00F011F8FFF791FA704700000220C7
:105718009059000800000020540100205801002082
:10572800C40A0020FEE7000070B50D4E0D4CA41B06
:10573800A4100025A54209D10B4E0C4C00F0F4F83A
:10574800A41BA4100025A54205D170BD56F825302C
:1057580098470135EEE756F8253098470135F2E7C6
:105768008859000888590008885900088C59000889
:10577800024B0146186800F059B800BFF00000203D
:10578800024B0146186800F003B800BFF000002083
:1057980038B50546002945D051F8043C0C1F002BAC
:1057A800B8BFE41800F0B0F81F4A1368104633B9C0
:1057B800636014602846BDE8384000F0A6B8A342EC
:1057C8000CD921686218934204BF1A685B68636049
:1057D80004BF521822600460ECE713465A680AB105
:1057E800A242FAD919685818A0420BD1206801447E
:1057F800581882421960DDD1106852685A60014415
:105808001960D7E702D90C232B60D3E72068211849
:105818008A4204BF11685268626004BF0918216097
:105828005C60C7E738BD00BFC001002070B5CD1C63
:1058380025F0030508350C2D38BF0C25002D06462C
:1058480001DBA94203D90C233360002070BD00F0AE
:105858005BF8234A1468214691B9224C23681BB986
:10586800304600F041F820602946304600F03CF808
:10587800431C26D10C233360304600F046F8E4E799
:105888000B685B1B1AD40B2B0FD90B60CD50CC18AF
:10589800304600F03AF804F10B00231D20F0070011
:1058A800C31A1BD05A42E25070BD8C420DBF6368C8
:1058B8004B686360136018BF0C46E9E70C464968FB
:1058C800CAE7C41C24F00304A04205D0211A3046BC
:1058D80000F00AF80130CDD02560D9E770BD00BFCF
:1058E800C0010020C401002038B5064C002305463D
:1058F8000846236000F00AF8431C02D1236803B16C
:105908002B6038BDC00A002070477047044B1968E7
:10591800024609B903491960186802441A607047B9
:10592800C8010020C40A0020F8B500BFF8BC08BCB4
:105938009E467047F8B500BFF8BC08BC9E46704745
:10594800434443000000000000000000010203047B
:105958000607080900000000010203040001020014
:105968000201022E2E5C5372635C757362685F637A
:085978006F6E662E6300000053
:085980004CB0FF7F01000000A4
:04598800AD01000865
:04598C008901000885
:10599000010000001000000048590008020000004B
:1059A0006F3B00080D3B0008993C0008D33C000801
:1059B000093B000800000000050000000000000096
:1059C00001000000020000000100000002000000D1
:1059D00001000000000000000300000002000000C1
:1059E00000000000010000000200000000000000B4
:1059F000020000000100000006000000010000009D
:105A0000020000000000000004000000010000008F
:105A1000000000000200000005000000000000007F
:105A20000200000001000000010000000100000071
:105A30000200000000000000030000000100000060
:105A40000000000002000000020000000000000052
:105A5000010000000200000006000000020000003B
:105A6000010000000000000004000000020000002F
:105A70000000000001000000140500000024F400F4
:105A8000F400002000000000000000000000000002
:105A90000000000000000000000000000000000006
:105AA00000000000000000000000000000000000F6
:105AB00000000000000000000000000000000000E6
:105AC00000000000000000000000000000000000D6
